{
  "_format": "hh-sol-artifact-1",
  "contractName": "RealEstateToken",
  "sourceName": "contracts/RealEstateToken.sol",
  "abi": [
    {
      "inputs": [
        {
          "internalType": "address",
          "name": "_paymentToken",
          "type": "address"
        }
      ],
      "stateMutability": "nonpayable",
      "type": "constructor"
    },
    {
      "anonymous": false,
      "inputs": [
        {
          "indexed": true,
          "internalType": "address",
          "name": "owner",
          "type": "address"
        },
        {
          "indexed": true,
          "internalType": "address",
          "name": "approved",
          "type": "address"
        },
        {
          "indexed": true,
          "internalType": "uint256",
          "name": "tokenId",
          "type": "uint256"
        }
      ],
      "name": "Approval",
      "type": "event"
    },
    {
      "anonymous": false,
      "inputs": [
        {
          "indexed": true,
          "internalType": "address",
          "name": "owner",
          "type": "address"
        },
        {
          "indexed": true,
          "internalType": "address",
          "name": "operator",
          "type": "address"
        },
        {
          "indexed": false,
          "internalType": "bool",
          "name": "approved",
          "type": "bool"
        }
      ],
      "name": "ApprovalForAll",
      "type": "event"
    },
    {
      "anonymous": false,
      "inputs": [
        {
          "indexed": false,
          "internalType": "uint256",
          "name": "_fromTokenId",
          "type": "uint256"
        },
        {
          "indexed": false,
          "internalType": "uint256",
          "name": "_toTokenId",
          "type": "uint256"
        }
      ],
      "name": "BatchMetadataUpdate",
      "type": "event"
    },
    {
      "anonymous": false,
      "inputs": [
        {
          "indexed": false,
          "internalType": "uint256",
          "name": "_tokenId",
          "type": "uint256"
        }
      ],
      "name": "MetadataUpdate",
      "type": "event"
    },
    {
      "anonymous": false,
      "inputs": [
        {
          "indexed": true,
          "internalType": "address",
          "name": "previousOwner",
          "type": "address"
        },
        {
          "indexed": true,
          "internalType": "address",
          "name": "newOwner",
          "type": "address"
        }
      ],
      "name": "OwnershipTransferred",
      "type": "event"
    },
    {
      "anonymous": false,
      "inputs": [
        {
          "indexed": true,
          "internalType": "uint256",
          "name": "tokenId",
          "type": "uint256"
        },
        {
          "indexed": false,
          "internalType": "string",
          "name": "propertyAddress",
          "type": "string"
        },
        {
          "indexed": false,
          "internalType": "uint256",
          "name": "totalShares",
          "type": "uint256"
        },
        {
          "indexed": false,
          "internalType": "uint256",
          "name": "pricePerShare",
          "type": "uint256"
        },
        {
          "indexed": false,
          "internalType": "uint256",
          "name": "monthlyRentalIncome",
          "type": "uint256"
        }
      ],
      "name": "PropertyListed",
      "type": "event"
    },
    {
      "anonymous": false,
      "inputs": [
        {
          "indexed": true,
          "internalType": "uint256",
          "name": "tokenId",
          "type": "uint256"
        },
        {
          "indexed": false,
          "internalType": "address",
          "name": "shareholder",
          "type": "address"
        },
        {
          "indexed": false,
          "internalType": "uint256",
          "name": "amount",
          "type": "uint256"
        }
      ],
      "name": "RentalIncomeClaimed",
      "type": "event"
    },
    {
      "anonymous": false,
      "inputs": [
        {
          "indexed": true,
          "internalType": "uint256",
          "name": "tokenId",
          "type": "uint256"
        },
        {
          "indexed": false,
          "internalType": "address",
          "name": "buyer",
          "type": "address"
        },
        {
          "indexed": false,
          "internalType": "uint256",
          "name": "shares",
          "type": "uint256"
        }
      ],
      "name": "SharesPurchased",
      "type": "event"
    },
    {
      "anonymous": false,
      "inputs": [
        {
          "indexed": true,
          "internalType": "uint256",
          "name": "tokenId",
          "type": "uint256"
        },
        {
          "indexed": false,
          "internalType": "address",
          "name": "seller",
          "type": "address"
        },
        {
          "indexed": false,
          "internalType": "uint256",
          "name": "shares",
          "type": "uint256"
        }
      ],
      "name": "SharesSold",
      "type": "event"
    },
    {
      "anonymous": false,
      "inputs": [
        {
          "indexed": true,
          "internalType": "address",
          "name": "from",
          "type": "address"
        },
        {
          "indexed": true,
          "internalType": "address",
          "name": "to",
          "type": "address"
        },
        {
          "indexed": true,
          "internalType": "uint256",
          "name": "tokenId",
          "type": "uint256"
        }
      ],
      "name": "Transfer",
      "type": "event"
    },
    {
      "inputs": [
        {
          "internalType": "address",
          "name": "to",
          "type": "address"
        },
        {
          "internalType": "uint256",
          "name": "tokenId",
          "type": "uint256"
        }
      ],
      "name": "approve",
      "outputs": [],
      "stateMutability": "nonpayable",
      "type": "function"
    },
    {
      "inputs": [
        {
          "internalType": "address",
          "name": "owner",
          "type": "address"
        }
      ],
      "name": "balanceOf",
      "outputs": [
        {
          "internalType": "uint256",
          "name": "",
          "type": "uint256"
        }
      ],
      "stateMutability": "view",
      "type": "function"
    },
    {
      "inputs": [
        {
          "internalType": "uint256",
          "name": "tokenId",
          "type": "uint256"
        },
        {
          "internalType": "uint256",
          "name": "shares",
          "type": "uint256"
        }
      ],
      "name": "buyShares",
      "outputs": [],
      "stateMutability": "nonpayable",
      "type": "function"
    },
    {
      "inputs": [
        {
          "internalType": "uint256",
          "name": "tokenId",
          "type": "uint256"
        }
      ],
      "name": "claimRentalIncome",
      "outputs": [],
      "stateMutability": "nonpayable",
      "type": "function"
    },
    {
      "inputs": [
        {
          "internalType": "uint256",
          "name": "tokenId",
          "type": "uint256"
        }
      ],
      "name": "getApproved",
      "outputs": [
        {
          "internalType": "address",
          "name": "",
          "type": "address"
        }
      ],
      "stateMutability": "view",
      "type": "function"
    },
    {
      "inputs": [
        {
          "internalType": "uint256",
          "name": "tokenId",
          "type": "uint256"
        },
        {
          "internalType": "address",
          "name": "shareholder",
          "type": "address"
        }
      ],
      "name": "getClaimableRentalIncome",
      "outputs": [
        {
          "internalType": "uint256",
          "name": "",
          "type": "uint256"
        }
      ],
      "stateMutability": "view",
      "type": "function"
    },
    {
      "inputs": [
        {
          "internalType": "uint256",
          "name": "tokenId",
          "type": "uint256"
        }
      ],
      "name": "getPropertyMetadata",
      "outputs": [
        {
          "components": [
            {
              "internalType": "uint256",
              "name": "tokenId",
              "type": "uint256"
            },
            {
              "internalType": "string",
              "name": "propertyAddress",
              "type": "string"
            },
            {
              "internalType": "uint256",
              "name": "totalShares",
              "type": "uint256"
            },
            {
              "internalType": "uint256",
              "name": "availableShares",
              "type": "uint256"
            },
            {
              "internalType": "uint256",
              "name": "pricePerShare",
              "type": "uint256"
            },
            {
              "internalType": "uint256",
              "name": "monthlyRentalIncome",
              "type": "uint256"
            },
            {
              "internalType": "uint256",
              "name": "lastAccumulationTimestamp",
              "type": "uint256"
            },
            {
              "internalType": "uint256",
              "name": "accumulatedRentalIncomePerShare",
              "type": "uint256"
            },
            {
              "internalType": "bool",
              "name": "isListed",
              "type": "bool"
            }
          ],
          "internalType": "struct RealEstateToken.Property",
          "name": "",
          "type": "tuple"
        }
      ],
      "stateMutability": "view",
      "type": "function"
    },
    {
      "inputs": [
        {
          "internalType": "uint256",
          "name": "tokenId",
          "type": "uint256"
        },
        {
          "internalType": "address",
          "name": "shareholder",
          "type": "address"
        }
      ],
      "name": "getShareholderShares",
      "outputs": [
        {
          "internalType": "uint256",
          "name": "",
          "type": "uint256"
        }
      ],
      "stateMutability": "view",
      "type": "function"
    },
    {
      "inputs": [
        {
          "internalType": "address",
          "name": "owner",
          "type": "address"
        },
        {
          "internalType": "address",
          "name": "operator",
          "type": "address"
        }
      ],
      "name": "isApprovedForAll",
      "outputs": [
        {
          "internalType": "bool",
          "name": "",
          "type": "bool"
        }
      ],
      "stateMutability": "view",
      "type": "function"
    },
    {
      "inputs": [
        {
          "internalType": "uint256",
          "name": "",
          "type": "uint256"
        },
        {
          "internalType": "address",
          "name": "",
          "type": "address"
        }
      ],
      "name": "lastClaimedAccumulation",
      "outputs": [
        {
          "internalType": "uint256",
          "name": "",
          "type": "uint256"
        }
      ],
      "stateMutability": "view",
      "type": "function"
    },
    {
      "inputs": [
        {
          "internalType": "string",
          "name": "propertyAddress",
          "type": "string"
        },
        {
          "internalType": "string",
          "name": "_tokenURI",
          "type": "string"
        },
        {
          "internalType": "uint256",
          "name": "totalShares",
          "type": "uint256"
        },
        {
          "internalType": "uint256",
          "name": "pricePerShare",
          "type": "uint256"
        },
        {
          "internalType": "uint256",
          "name": "monthlyRentalIncome",
          "type": "uint256"
        }
      ],
      "name": "listProperty",
      "outputs": [],
      "stateMutability": "nonpayable",
      "type": "function"
    },
    {
      "inputs": [],
      "name": "name",
      "outputs": [
        {
          "internalType": "string",
          "name": "",
          "type": "string"
        }
      ],
      "stateMutability": "view",
      "type": "function"
    },
    {
      "inputs": [],
      "name": "owner",
      "outputs": [
        {
          "internalType": "address",
          "name": "",
          "type": "address"
        }
      ],
      "stateMutability": "view",
      "type": "function"
    },
    {
      "inputs": [
        {
          "internalType": "uint256",
          "name": "tokenId",
          "type": "uint256"
        }
      ],
      "name": "ownerOf",
      "outputs": [
        {
          "internalType": "address",
          "name": "",
          "type": "address"
        }
      ],
      "stateMutability": "view",
      "type": "function"
    },
    {
      "inputs": [],
      "name": "paymentToken",
      "outputs": [
        {
          "internalType": "contract IERC20",
          "name": "",
          "type": "address"
        }
      ],
      "stateMutability": "view",
      "type": "function"
    },
    {
      "inputs": [
        {
          "internalType": "uint256",
          "name": "",
          "type": "uint256"
        }
      ],
      "name": "properties",
      "outputs": [
        {
          "internalType": "uint256",
          "name": "tokenId",
          "type": "uint256"
        },
        {
          "internalType": "string",
          "name": "propertyAddress",
          "type": "string"
        },
        {
          "internalType": "uint256",
          "name": "totalShares",
          "type": "uint256"
        },
        {
          "internalType": "uint256",
          "name": "availableShares",
          "type": "uint256"
        },
        {
          "internalType": "uint256",
          "name": "pricePerShare",
          "type": "uint256"
        },
        {
          "internalType": "uint256",
          "name": "monthlyRentalIncome",
          "type": "uint256"
        },
        {
          "internalType": "uint256",
          "name": "lastAccumulationTimestamp",
          "type": "uint256"
        },
        {
          "internalType": "uint256",
          "name": "accumulatedRentalIncomePerShare",
          "type": "uint256"
        },
        {
          "internalType": "bool",
          "name": "isListed",
          "type": "bool"
        }
      ],
      "stateMutability": "view",
      "type": "function"
    },
    {
      "inputs": [
        {
          "internalType": "uint256",
          "name": "",
          "type": "uint256"
        },
        {
          "internalType": "uint256",
          "name": "",
          "type": "uint256"
        }
      ],
      "name": "propertyShareholders",
      "outputs": [
        {
          "internalType": "address",
          "name": "",
          "type": "address"
        }
      ],
      "stateMutability": "view",
      "type": "function"
    },
    {
      "inputs": [],
      "name": "renounceOwnership",
      "outputs": [],
      "stateMutability": "nonpayable",
      "type": "function"
    },
    {
      "inputs": [
        {
          "internalType": "address",
          "name": "from",
          "type": "address"
        },
        {
          "internalType": "address",
          "name": "to",
          "type": "address"
        },
        {
          "internalType": "uint256",
          "name": "tokenId",
          "type": "uint256"
        }
      ],
      "name": "safeTransferFrom",
      "outputs": [],
      "stateMutability": "nonpayable",
      "type": "function"
    },
    {
      "inputs": [
        {
          "internalType": "address",
          "name": "from",
          "type": "address"
        },
        {
          "internalType": "address",
          "name": "to",
          "type": "address"
        },
        {
          "internalType": "uint256",
          "name": "tokenId",
          "type": "uint256"
        },
        {
          "internalType": "bytes",
          "name": "data",
          "type": "bytes"
        }
      ],
      "name": "safeTransferFrom",
      "outputs": [],
      "stateMutability": "nonpayable",
      "type": "function"
    },
    {
      "inputs": [
        {
          "internalType": "uint256",
          "name": "tokenId",
          "type": "uint256"
        },
        {
          "internalType": "uint256",
          "name": "shares",
          "type": "uint256"
        }
      ],
      "name": "sellShares",
      "outputs": [],
      "stateMutability": "nonpayable",
      "type": "function"
    },
    {
      "inputs": [
        {
          "internalType": "address",
          "name": "operator",
          "type": "address"
        },
        {
          "internalType": "bool",
          "name": "approved",
          "type": "bool"
        }
      ],
      "name": "setApprovalForAll",
      "outputs": [],
      "stateMutability": "nonpayable",
      "type": "function"
    },
    {
      "inputs": [
        {
          "internalType": "uint256",
          "name": "",
          "type": "uint256"
        },
        {
          "internalType": "address",
          "name": "",
          "type": "address"
        }
      ],
      "name": "shareholderShares",
      "outputs": [
        {
          "internalType": "uint256",
          "name": "",
          "type": "uint256"
        }
      ],
      "stateMutability": "view",
      "type": "function"
    },
    {
      "inputs": [
        {
          "internalType": "bytes4",
          "name": "interfaceId",
          "type": "bytes4"
        }
      ],
      "name": "supportsInterface",
      "outputs": [
        {
          "internalType": "bool",
          "name": "",
          "type": "bool"
        }
      ],
      "stateMutability": "view",
      "type": "function"
    },
    {
      "inputs": [],
      "name": "symbol",
      "outputs": [
        {
          "internalType": "string",
          "name": "",
          "type": "string"
        }
      ],
      "stateMutability": "view",
      "type": "function"
    },
    {
      "inputs": [
        {
          "internalType": "uint256",
          "name": "index",
          "type": "uint256"
        }
      ],
      "name": "tokenByIndex",
      "outputs": [
        {
          "internalType": "uint256",
          "name": "",
          "type": "uint256"
        }
      ],
      "stateMutability": "view",
      "type": "function"
    },
    {
      "inputs": [
        {
          "internalType": "address",
          "name": "owner",
          "type": "address"
        },
        {
          "internalType": "uint256",
          "name": "index",
          "type": "uint256"
        }
      ],
      "name": "tokenOfOwnerByIndex",
      "outputs": [
        {
          "internalType": "uint256",
          "name": "",
          "type": "uint256"
        }
      ],
      "stateMutability": "view",
      "type": "function"
    },
    {
      "inputs": [
        {
          "internalType": "uint256",
          "name": "tokenId",
          "type": "uint256"
        }
      ],
      "name": "tokenURI",
      "outputs": [
        {
          "internalType": "string",
          "name": "",
          "type": "string"
        }
      ],
      "stateMutability": "view",
      "type": "function"
    },
    {
      "inputs": [],
      "name": "totalSupply",
      "outputs": [
        {
          "internalType": "uint256",
          "name": "",
          "type": "uint256"
        }
      ],
      "stateMutability": "view",
      "type": "function"
    },
    {
      "inputs": [
        {
          "internalType": "address",
          "name": "from",
          "type": "address"
        },
        {
          "internalType": "address",
          "name": "to",
          "type": "address"
        },
        {
          "internalType": "uint256",
          "name": "tokenId",
          "type": "uint256"
        }
      ],
      "name": "transferFrom",
      "outputs": [],
      "stateMutability": "nonpayable",
      "type": "function"
    },
    {
      "inputs": [
        {
          "internalType": "address",
          "name": "newOwner",
          "type": "address"
        }
      ],
      "name": "transferOwnership",
      "outputs": [],
      "stateMutability": "nonpayable",
      "type": "function"
    }
  ],
  "bytecode": "0x60806040523480156200001157600080fd5b50604051620056a7380380620056a7833981810160405281019062000037919062000269565b6040518060400160405280600f81526020017f5265616c457374617465546f6b656e00000000000000000000000000000000008152506040518060400160405280600381526020017f52455400000000000000000000000000000000000000000000000000000000008152508160009081620000b4919062000515565b508060019081620000c6919062000515565b505050620000e9620000dd6200013160201b60201c565b6200013960201b60201c565b80601160006101000a81548173ffffffffffffffffffffffffffffffffffffffff021916908373ffffffffffffffffffffffffffffffffffffffff16021790555050620005fc565b600033905090565b6000600b60009054906101000a900473ffffffffffffffffffffffffffffffffffffffff16905081600b60006101000a81548173ffffffffffffffffffffffffffffffffffffffff021916908373ffffffffffffffffffffffffffffffffffffffff1602179055508173ffffffffffffffffffffffffffffffffffffffff168173ffffffffffffffffffffffffffffffffffffffff167f8be0079c531659141344cd1fd0a4f28419497f9722a3daafe3b4186f6b6457e060405160405180910390a35050565b600080fd5b600073ffffffffffffffffffffffffffffffffffffffff82169050919050565b6000620002318262000204565b9050919050565b620002438162000224565b81146200024f57600080fd5b50565b600081519050620002638162000238565b92915050565b600060208284031215620002825762000281620001ff565b5b6000620002928482850162000252565b91505092915050565b600081519050919050565b7f4e487b7100000000000000000000000000000000000000000000000000000000600052604160045260246000fd5b7f4e487b7100000000000000000000000000000000000000000000000000000000600052602260045260246000fd5b600060028204905060018216806200031d57607f821691505b602082108103620003335762000332620002d5565b5b50919050565b60008190508160005260206000209050919050565b60006020601f8301049050919050565b600082821b905092915050565b6000600883026200039d7fffffffffffffffffffffffffffffffffffffffffffffffffffffffffffffffff826200035e565b620003a986836200035e565b95508019841693508086168417925050509392505050565b6000819050919050565b6000819050919050565b6000620003f6620003f0620003ea84620003c1565b620003cb565b620003c1565b9050919050565b6000819050919050565b6200041283620003d5565b6200042a6200042182620003fd565b8484546200036b565b825550505050565b600090565b6200044162000432565b6200044e81848462000407565b505050565b5b8181101562000476576200046a60008262000437565b60018101905062000454565b5050565b601f821115620004c5576200048f8162000339565b6200049a846200034e565b81016020851015620004aa578190505b620004c2620004b9856200034e565b83018262000453565b50505b505050565b600082821c905092915050565b6000620004ea60001984600802620004ca565b1980831691505092915050565b6000620005058383620004d7565b9150826002028217905092915050565b62000520826200029b565b67ffffffffffffffff8111156200053c576200053b620002a6565b5b62000548825462000304565b620005558282856200047a565b600060209050601f8311600181146200058d576000841562000578578287015190505b620005848582620004f7565b865550620005f4565b601f1984166200059d8662000339565b60005b82811015620005c757848901518255600182019150602085019450602081019050620005a0565b86831015620005e75784890151620005e3601f891682620004d7565b8355505b6001600288020188555050505b505050505050565b61509b806200060c6000396000f3fe608060405234801561001057600080fd5b50600436106101e55760003560e01c80636a3b14701161010f578063b88d4fde116100a2578063e985e9c511610071578063e985e9c5146105c6578063f2fde38b146105f6578063f31f561914610612578063f7b1080814610642576101e5565b8063b88d4fde14610542578063beebc5da1461055e578063c87b56dd1461057a578063d9a9cd43146105aa576101e5565b80638da5cb5b116100de5780638da5cb5b146104ba57806395d89b41146104d85780639c49b157146104f6578063a22cb46514610526576101e5565b80636a3b14701461043457806370a0823114610464578063715018a614610494578063813759e71461049e576101e5565b80632f745c591161018757806342842e0e1161015657806342842e0e1461038857806347129439146103a45780634f6ccce7146103d45780636352211e14610404576101e5565b80632f745c59146102da5780633013ce291461030a57806334a12c881461032857806338311b8514610358576101e5565b8063095ea7b3116101c3578063095ea7b31461026857806318160ddd146102845780632279a970146102a257806323b872dd146102be576101e5565b806301ffc9a7146101ea57806306fdde031461021a578063081812fc14610238575b600080fd5b61020460048036038101906101ff91906134ce565b61067a565b6040516102119190613516565b60405180910390f35b61022261068c565b60405161022f91906135c1565b60405180910390f35b610252600480360381019061024d9190613619565b61071e565b60405161025f9190613687565b60405180910390f35b610282600480360381019061027d91906136ce565b610764565b005b61028c61087b565b604051610299919061371d565b60405180910390f35b6102bc60048036038101906102b79190613738565b610888565b005b6102d860048036038101906102d39190613778565b610af9565b005b6102f460048036038101906102ef91906136ce565b610b59565b604051610301919061371d565b60405180910390f35b610312610bfe565b60405161031f919061382a565b60405180910390f35b610342600480360381019061033d9190613845565b610c24565b60405161034f919061371d565b60405180910390f35b610372600480360381019061036d9190613845565b610d33565b60405161037f919061371d565b60405180910390f35b6103a2600480360381019061039d9190613778565b610d58565b005b6103be60048036038101906103b99190613845565b610d78565b6040516103cb919061371d565b60405180910390f35b6103ee60048036038101906103e99190613619565b610dd3565b6040516103fb919061371d565b60405180910390f35b61041e60048036038101906104199190613619565b610e44565b60405161042b9190613687565b60405180910390f35b61044e60048036038101906104499190613738565b610eca565b60405161045b9190613687565b60405180910390f35b61047e60048036038101906104799190613885565b610f18565b60405161048b919061371d565b60405180910390f35b61049c610fcf565b005b6104b860048036038101906104b39190613619565b610fe3565b005b6104c2610ff8565b6040516104cf9190613687565b60405180910390f35b6104e0611022565b6040516104ed91906135c1565b60405180910390f35b610510600480360381019061050b9190613619565b6110b4565b60405161051d91906139df565b60405180910390f35b610540600480360381019061053b9190613a2d565b6111d5565b005b61055c60048036038101906105579190613ba2565b6111eb565b005b61057860048036038101906105739190613738565b61124d565b005b610594600480360381019061058f9190613619565b611589565b6040516105a191906135c1565b60405180910390f35b6105c460048036038101906105bf9190613cc6565b61159b565b005b6105e060048036038101906105db9190613d79565b6116ec565b6040516105ed9190613516565b60405180910390f35b610610600480360381019061060b9190613885565b611780565b005b61062c60048036038101906106279190613845565b611803565b604051610639919061371d565b60405180910390f35b61065c60048036038101906106579190613619565b611828565b60405161067199989796959493929190613db9565b60405180910390f35b60006106858261190b565b9050919050565b60606000805461069b90613e7c565b80601f01602080910402602001604051908101604052809291908181526020018280546106c790613e7c565b80156107145780601f106106e957610100808354040283529160200191610714565b820191906000526020600020905b8154815290600101906020018083116106f757829003601f168201915b5050505050905090565b600061072982611985565b6004600083815260200190815260200160002060009054906101000a900473ffffffffffffffffffffffffffffffffffffffff169050919050565b600061076f82610e44565b90508073ffffffffffffffffffffffffffffffffffffffff168373ffffffffffffffffffffffffffffffffffffffff16036107df576040517f08c379a00000000000000000000000000000000000000000000000000000000081526004016107d690613f1f565b60405180910390fd5b8073ffffffffffffffffffffffffffffffffffffffff166107fe6119d0565b73ffffffffffffffffffffffffffffffffffffffff16148061082d575061082c816108276119d0565b6116ec565b5b61086c576040517f08c379a000000000000000000000000000000000000000000000000000000000815260040161086390613fb1565b60405180910390fd5b61087683836119d8565b505050565b6000600980549050905090565b6000600d6000848152602001908152602001600020905081600e600085815260200190815260200160002060003373ffffffffffffffffffffffffffffffffffffffff1673ffffffffffffffffffffffffffffffffffffffff168152602001908152602001600020541015610932576040517f08c379a00000000000000000000000000000000000000000000000000000000081526004016109299061401d565b60405180910390fd5b61093b83611a91565b61094483611b5a565b6000816004015483610956919061406c565b9050601160009054906101000a900473ffffffffffffffffffffffffffffffffffffffff1673ffffffffffffffffffffffffffffffffffffffff1663a9059cbb33836040518363ffffffff1660e01b81526004016109b59291906140ae565b6020604051808303816000875af11580156109d4573d6000803e3d6000fd5b505050506040513d601f19601f820116820180604052508101906109f891906140ec565b610a37576040517f08c379a0000000000000000000000000000000000000000000000000000000008152600401610a2e90614165565b60405180910390fd5b82826003016000828254610a4b9190614185565b9250508190555082600e600086815260200190815260200160002060003373ffffffffffffffffffffffffffffffffffffffff1673ffffffffffffffffffffffffffffffffffffffff1681526020019081526020016000206000828254610ab291906141b9565b92505081905550837f938a3e7589d60f00d1e57b9257ead6b218cde7829429cbbdc4afb037ddce22233385604051610aeb9291906140ae565b60405180910390a250505050565b610b0a610b046119d0565b82611e13565b610b49576040517f08c379a0000000000000000000000000000000000000000000000000000000008152600401610b409061425f565b60405180910390fd5b610b54838383611ea8565b505050565b6000610b6483610f18565b8210610ba5576040517f08c379a0000000000000000000000000000000000000000000000000000000008152600401610b9c906142f1565b60405180910390fd5b600760008473ffffffffffffffffffffffffffffffffffffffff1673ffffffffffffffffffffffffffffffffffffffff168152602001908152602001600020600083815260200190815260200160002054905092915050565b601160009054906101000a900473ffffffffffffffffffffffffffffffffffffffff1681565b600080600d600085815260200190815260200160002090506000600e600086815260200190815260200160002060008573ffffffffffffffffffffffffffffffffffffffff1673ffffffffffffffffffffffffffffffffffffffff16815260200190815260200160002054905060008103610ca457600092505050610d2d565b6000600f600087815260200190815260200160002060008673ffffffffffffffffffffffffffffffffffffffff1673ffffffffffffffffffffffffffffffffffffffff168152602001908152602001600020548360070154610d0691906141b9565b9050670de0b6b3a76400008282610d1d919061406c565b610d279190614340565b93505050505b92915050565b600e602052816000526040600020602052806000526040600020600091509150505481565b610d73838383604051806020016040528060008152506111eb565b505050565b6000600e600084815260200190815260200160002060008373ffffffffffffffffffffffffffffffffffffffff1673ffffffffffffffffffffffffffffffffffffffff16815260200190815260200160002054905092915050565b6000610ddd61087b565b8210610e1e576040517f08c379a0000000000000000000000000000000000000000000000000000000008152600401610e15906143e3565b60405180910390fd5b60098281548110610e3257610e31614403565b5b90600052602060002001549050919050565b600080610e50836121a1565b9050600073ffffffffffffffffffffffffffffffffffffffff168173ffffffffffffffffffffffffffffffffffffffff1603610ec1576040517f08c379a0000000000000000000000000000000000000000000000000000000008152600401610eb89061447e565b60405180910390fd5b80915050919050565b60106020528160005260406000208181548110610ee657600080fd5b906000526020600020016000915091509054906101000a900473ffffffffffffffffffffffffffffffffffffffff1681565b60008073ffffffffffffffffffffffffffffffffffffffff168273ffffffffffffffffffffffffffffffffffffffff1603610f88576040517f08c379a0000000000000000000000000000000000000000000000000000000008152600401610f7f90614510565b60405180910390fd5b600360008373ffffffffffffffffffffffffffffffffffffffff1673ffffffffffffffffffffffffffffffffffffffff168152602001908152602001600020549050919050565b610fd76121de565b610fe1600061225c565b565b610fec81611a91565b610ff581611b5a565b50565b6000600b60009054906101000a900473ffffffffffffffffffffffffffffffffffffffff16905090565b60606001805461103190613e7c565b80601f016020809104026020016040519081016040528092919081815260200182805461105d90613e7c565b80156110aa5780601f1061107f576101008083540402835291602001916110aa565b820191906000526020600020905b81548152906001019060200180831161108d57829003601f168201915b5050505050905090565b6110bc613414565b600d600083815260200190815260200160002060405180610120016040529081600082015481526020016001820180546110f590613e7c565b80601f016020809104026020016040519081016040528092919081815260200182805461112190613e7c565b801561116e5780601f106111435761010080835404028352916020019161116e565b820191906000526020600020905b81548152906001019060200180831161115157829003601f168201915b505050505081526020016002820154815260200160038201548152602001600482015481526020016005820154815260200160068201548152602001600782015481526020016008820160009054906101000a900460ff1615151515815250509050919050565b6111e76111e06119d0565b8383612322565b5050565b6111fc6111f66119d0565b83611e13565b61123b576040517f08c379a00000000000000000000000000000000000000000000000000000000081526004016112329061425f565b60405180910390fd5b6112478484848461248e565b50505050565b6000600d600084815260200190815260200160002090508060080160009054906101000a900460ff166112b5576040517f08c379a00000000000000000000000000000000000000000000000000000000081526004016112ac9061457c565b60405180910390fd5b80600301548211156112fc576040517f08c379a00000000000000000000000000000000000000000000000000000000081526004016112f3906145e8565b60405180910390fd5b600081600401548361130e919061406c565b9050601160009054906101000a900473ffffffffffffffffffffffffffffffffffffffff1673ffffffffffffffffffffffffffffffffffffffff166323b872dd3330846040518463ffffffff1660e01b815260040161136f93929190614608565b6020604051808303816000875af115801561138e573d6000803e3d6000fd5b505050506040513d601f19601f820116820180604052508101906113b291906140ec565b6113f1576040517f08c379a00000000000000000000000000000000000000000000000000000000081526004016113e890614165565b60405180910390fd5b6113fa84611a91565b8282600301600082825461140e91906141b9565b9250508190555082600e600086815260200190815260200160002060003373ffffffffffffffffffffffffffffffffffffffff1673ffffffffffffffffffffffffffffffffffffffff16815260200190815260200160002060008282546114759190614185565b925050819055508160070154600f600086815260200190815260200160002060003373ffffffffffffffffffffffffffffffffffffffff1673ffffffffffffffffffffffffffffffffffffffff1681526020019081526020016000208190555060106000858152602001908152602001600020339080600181540180825580915050600190039060005260206000200160009091909190916101000a81548173ffffffffffffffffffffffffffffffffffffffff021916908373ffffffffffffffffffffffffffffffffffffffff160217905550837fd4a7a37d339805413b4085e0f8e0932dfb0a4f84f08f98a6e53673b5ee8eee15338560405161157b9291906140ae565b60405180910390a250505050565b6060611594826124ea565b9050919050565b6115a36121de565b6115ad600c6125fc565b60006115b9600c612612565b90506115c53382612620565b6115cf818661263e565b6040518061012001604052808281526020018781526020018581526020018581526020018481526020018381526020014281526020016000815260200160011515815250600d600083815260200190815260200160002060008201518160000155602082015181600101908161164591906147e1565b5060408201518160020155606082015181600301556080820151816004015560a0820151816005015560c0820151816006015560e082015181600701556101008201518160080160006101000a81548160ff021916908315150217905550905050807f3ad77af46388b6b6875ca162c38e4b2f21d08754233a1908f641a6b999100d3d878686866040516116dc94939291906148b3565b60405180910390a2505050505050565b6000600560008473ffffffffffffffffffffffffffffffffffffffff1673ffffffffffffffffffffffffffffffffffffffff16815260200190815260200160002060008373ffffffffffffffffffffffffffffffffffffffff1673ffffffffffffffffffffffffffffffffffffffff16815260200190815260200160002060009054906101000a900460ff16905092915050565b6117886121de565b600073ffffffffffffffffffffffffffffffffffffffff168173ffffffffffffffffffffffffffffffffffffffff16036117f7576040517f08c379a00000000000000000000000000000000000000000000000000000000081526004016117ee90614971565b60405180910390fd5b6118008161225c565b50565b600f602052816000526040600020602052806000526040600020600091509150505481565b600d60205280600052604060002060009150905080600001549080600101805461185190613e7c565b80601f016020809104026020016040519081016040528092919081815260200182805461187d90613e7c565b80156118ca5780601f1061189f576101008083540402835291602001916118ca565b820191906000526020600020905b8154815290600101906020018083116118ad57829003601f168201915b5050505050908060020154908060030154908060040154908060050154908060060154908060070154908060080160009054906101000a900460ff16905089565b60007f780e9d63000000000000000000000000000000000000000000000000000000007bffffffffffffffffffffffffffffffffffffffffffffffffffffffff1916827bffffffffffffffffffffffffffffffffffffffffffffffffffffffff1916148061197e575061197d826126e2565b5b9050919050565b61198e81612743565b6119cd576040517f08c379a00000000000000000000000000000000000000000000000000000000081526004016119c49061447e565b60405180910390fd5b50565b600033905090565b816004600083815260200190815260200160002060006101000a81548173ffffffffffffffffffffffffffffffffffffffff021916908373ffffffffffffffffffffffffffffffffffffffff160217905550808273ffffffffffffffffffffffffffffffffffffffff16611a4b83610e44565b73ffffffffffffffffffffffffffffffffffffffff167f8c5be1e5ebec7d5bd14f71427d1e84f3dd0314c0f7b2291e5b200ac8c7c3b92560405160405180910390a45050565b6000600d600083815260200190815260200160002090506000816006015442611aba91906141b9565b9050600062278d0082611acd9190614340565b90506000811115611b54576000818460050154611aea919061406c565b90508360020154670de0b6b3a764000082611b05919061406c565b611b0f9190614340565b846007016000828254611b229190614185565b9250508190555062278d0082611b38919061406c565b846006016000828254611b4b9190614185565b92505081905550505b50505050565b6000600d600083815260200190815260200160002090506000600e600084815260200190815260200160002060003373ffffffffffffffffffffffffffffffffffffffff1673ffffffffffffffffffffffffffffffffffffffff16815260200190815260200160002054905060008111611c09576040517f08c379a0000000000000000000000000000000000000000000000000000000008152600401611c00906149dd565b60405180910390fd5b6000600f600085815260200190815260200160002060003373ffffffffffffffffffffffffffffffffffffffff1673ffffffffffffffffffffffffffffffffffffffff168152602001908152602001600020548360070154611c6b91906141b9565b90506000670de0b6b3a76400008383611c84919061406c565b611c8e9190614340565b90506000811115611e0c578360070154600f600087815260200190815260200160002060003373ffffffffffffffffffffffffffffffffffffffff1673ffffffffffffffffffffffffffffffffffffffff16815260200190815260200160002081905550601160009054906101000a900473ffffffffffffffffffffffffffffffffffffffff1673ffffffffffffffffffffffffffffffffffffffff1663a9059cbb33836040518363ffffffff1660e01b8152600401611d4f9291906140ae565b6020604051808303816000875af1158015611d6e573d6000803e3d6000fd5b505050506040513d601f19601f82011682018060405250810190611d9291906140ec565b611dd1576040517f08c379a0000000000000000000000000000000000000000000000000000000008152600401611dc890614a49565b60405180910390fd5b847f92590c9635e258b48a11c88c617182d3531a9668a55ecca1db2a7c03e57e39f43383604051611e039291906140ae565b60405180910390a25b5050505050565b600080611e1f83610e44565b90508073ffffffffffffffffffffffffffffffffffffffff168473ffffffffffffffffffffffffffffffffffffffff161480611e615750611e6081856116ec565b5b80611e9f57508373ffffffffffffffffffffffffffffffffffffffff16611e878461071e565b73ffffffffffffffffffffffffffffffffffffffff16145b91505092915050565b8273ffffffffffffffffffffffffffffffffffffffff16611ec882610e44565b73ffffffffffffffffffffffffffffffffffffffff1614611f1e576040517f08c379a0000000000000000000000000000000000000000000000000000000008152600401611f1590614adb565b60405180910390fd5b600073ffffffffffffffffffffffffffffffffffffffff168273ffffffffffffffffffffffffffffffffffffffff1603611f8d576040517f08c379a0000000000000000000000000000000000000000000000000000000008152600401611f8490614b6d565b60405180910390fd5b611f9a8383836001612784565b8273ffffffffffffffffffffffffffffffffffffffff16611fba82610e44565b73ffffffffffffffffffffffffffffffffffffffff1614612010576040517f08c379a000000000000000000000000000000000000000000000000000000000815260040161200790614adb565b60405180910390fd5b6004600082815260200190815260200160002060006101000a81549073ffffffffffffffffffffffffffffffffffffffff02191690556001600360008573ffffffffffffffffffffffffffffffffffffffff1673ffffffffffffffffffffffffffffffffffffffff168152602001908152602001600020600082825403925050819055506001600360008473ffffffffffffffffffffffffffffffffffffffff1673ffffffffffffffffffffffffffffffffffffffff16815260200190815260200160002060008282540192505081905550816002600083815260200190815260200160002060006101000a81548173ffffffffffffffffffffffffffffffffffffffff021916908373ffffffffffffffffffffffffffffffffffffffff160217905550808273ffffffffffffffffffffffffffffffffffffffff168473ffffffffffffffffffffffffffffffffffffffff167fddf252ad1be2c89b69c2b068fc378daa952ba7f163c4a11628f55a4df523b3ef60405160405180910390a461219c8383836001612796565b505050565b60006002600083815260200190815260200160002060009054906101000a900473ffffffffffffffffffffffffffffffffffffffff169050919050565b6121e66119d0565b73ffffffffffffffffffffffffffffffffffffffff16612204610ff8565b73ffffffffffffffffffffffffffffffffffffffff161461225a576040517f08c379a000000000000000000000000000000000000000000000000000000000815260040161225190614bd9565b60405180910390fd5b565b6000600b60009054906101000a900473ffffffffffffffffffffffffffffffffffffffff16905081600b60006101000a81548173ffffffffffffffffffffffffffffffffffffffff021916908373ffffffffffffffffffffffffffffffffffffffff1602179055508173ffffffffffffffffffffffffffffffffffffffff168173ffffffffffffffffffffffffffffffffffffffff167f8be0079c531659141344cd1fd0a4f28419497f9722a3daafe3b4186f6b6457e060405160405180910390a35050565b8173ffffffffffffffffffffffffffffffffffffffff168373ffffffffffffffffffffffffffffffffffffffff1603612390576040517f08c379a000000000000000000000000000000000000000000000000000000000815260040161238790614c45565b60405180910390fd5b80600560008573ffffffffffffffffffffffffffffffffffffffff1673ffffffffffffffffffffffffffffffffffffffff16815260200190815260200160002060008473ffffffffffffffffffffffffffffffffffffffff1673ffffffffffffffffffffffffffffffffffffffff16815260200190815260200160002060006101000a81548160ff0219169083151502179055508173ffffffffffffffffffffffffffffffffffffffff168373ffffffffffffffffffffffffffffffffffffffff167f17307eab39ab6107e8899845ad3d59bd9653f200f220920489ca2b5937696c31836040516124819190613516565b60405180910390a3505050565b612499848484611ea8565b6124a58484848461279c565b6124e4576040517f08c379a00000000000000000000000000000000000000000000000000000000081526004016124db90614cd7565b60405180910390fd5b50505050565b60606124f582611985565b600060066000848152602001908152602001600020805461251590613e7c565b80601f016020809104026020016040519081016040528092919081815260200182805461254190613e7c565b801561258e5780601f106125635761010080835404028352916020019161258e565b820191906000526020600020905b81548152906001019060200180831161257157829003601f168201915b50505050509050600061259f612923565b905060008151036125b45781925050506125f7565b6000825111156125e95780826040516020016125d1929190614d33565b604051602081830303815290604052925050506125f7565b6125f28461293a565b925050505b919050565b6001816000016000828254019250508190555050565b600081600001549050919050565b61263a8282604051806020016040528060008152506129a2565b5050565b61264782612743565b612686576040517f08c379a000000000000000000000000000000000000000000000000000000000815260040161267d90614dc9565b60405180910390fd5b806006600084815260200190815260200160002090816126a691906147e1565b507ff8e1a15aba9398e019f0b49df1a4fde98ee17ae345cb5f6b5e2c27f5033e8ce7826040516126d6919061371d565b60405180910390a15050565b6000634906490660e01b7bffffffffffffffffffffffffffffffffffffffffffffffffffffffff1916827bffffffffffffffffffffffffffffffffffffffffffffffffffffffff1916148061273c575061273b826129fd565b5b9050919050565b60008073ffffffffffffffffffffffffffffffffffffffff16612765836121a1565b73ffffffffffffffffffffffffffffffffffffffff1614159050919050565b61279084848484612adf565b50505050565b50505050565b60006127bd8473ffffffffffffffffffffffffffffffffffffffff16612c3d565b15612916578373ffffffffffffffffffffffffffffffffffffffff1663150b7a026127e66119d0565b8786866040518563ffffffff1660e01b81526004016128089493929190614e3e565b6020604051808303816000875af192505050801561284457506040513d601f19601f820116820180604052508101906128419190614e9f565b60015b6128c6573d8060008114612874576040519150601f19603f3d011682016040523d82523d6000602084013e612879565b606091505b5060008151036128be576040517f08c379a00000000000000000000000000000000000000000000000000000000081526004016128b590614cd7565b60405180910390fd5b805181602001fd5b63150b7a0260e01b7bffffffffffffffffffffffffffffffffffffffffffffffffffffffff1916817bffffffffffffffffffffffffffffffffffffffffffffffffffffffff19161491505061291b565b600190505b949350505050565b606060405180602001604052806000815250905090565b606061294582611985565b600061294f612923565b9050600081511161296f576040518060200160405280600081525061299a565b8061297984612c60565b60405160200161298a929190614d33565b6040516020818303038152906040525b915050919050565b6129ac8383612d2e565b6129b9600084848461279c565b6129f8576040517f08c379a00000000000000000000000000000000000000000000000000000000081526004016129ef90614cd7565b60405180910390fd5b505050565b60007f80ac58cd000000000000000000000000000000000000000000000000000000007bffffffffffffffffffffffffffffffffffffffffffffffffffffffff1916827bffffffffffffffffffffffffffffffffffffffffffffffffffffffff19161480612ac857507f5b5e139f000000000000000000000000000000000000000000000000000000007bffffffffffffffffffffffffffffffffffffffffffffffffffffffff1916827bffffffffffffffffffffffffffffffffffffffffffffffffffffffff1916145b80612ad85750612ad782612f4b565b5b9050919050565b612aeb84848484612fb5565b6001811115612b2f576040517f08c379a0000000000000000000000000000000000000000000000000000000008152600401612b2690614f3e565b60405180910390fd5b6000829050600073ffffffffffffffffffffffffffffffffffffffff168573ffffffffffffffffffffffffffffffffffffffff1603612b7657612b7181612fbb565b612bb5565b8373ffffffffffffffffffffffffffffffffffffffff168573ffffffffffffffffffffffffffffffffffffffff1614612bb457612bb38582613004565b5b5b600073ffffffffffffffffffffffffffffffffffffffff168473ffffffffffffffffffffffffffffffffffffffff1603612bf757612bf281613171565b612c36565b8473ffffffffffffffffffffffffffffffffffffffff168473ffffffffffffffffffffffffffffffffffffffff1614612c3557612c348482613242565b5b5b5050505050565b6000808273ffffffffffffffffffffffffffffffffffffffff163b119050919050565b606060006001612c6f846132c1565b01905060008167ffffffffffffffff811115612c8e57612c8d613a77565b5b6040519080825280601f01601f191660200182016040528015612cc05781602001600182028036833780820191505090505b509050600082602001820190505b600115612d23578080600190039150507f3031323334353637383961626364656600000000000000000000000000000000600a86061a8153600a8581612d1757612d16614311565b5b04945060008503612cce575b819350505050919050565b600073ffffffffffffffffffffffffffffffffffffffff168273ffffffffffffffffffffffffffffffffffffffff1603612d9d576040517f08c379a0000000000000000000000000000000000000000000000000000000008152600401612d9490614faa565b60405180910390fd5b612da681612743565b15612de6576040517f08c379a0000000000000000000000000000000000000000000000000000000008152600401612ddd90615016565b60405180910390fd5b612df4600083836001612784565b612dfd81612743565b15612e3d576040517f08c379a0000000000000000000000000000000000000000000000000000000008152600401612e3490615016565b60405180910390fd5b6001600360008473ffffffffffffffffffffffffffffffffffffffff1673ffffffffffffffffffffffffffffffffffffffff16815260200190815260200160002060008282540192505081905550816002600083815260200190815260200160002060006101000a81548173ffffffffffffffffffffffffffffffffffffffff021916908373ffffffffffffffffffffffffffffffffffffffff160217905550808273ffffffffffffffffffffffffffffffffffffffff16600073ffffffffffffffffffffffffffffffffffffffff167fddf252ad1be2c89b69c2b068fc378daa952ba7f163c4a11628f55a4df523b3ef60405160405180910390a4612f47600083836001612796565b5050565b60007f01ffc9a7000000000000000000000000000000000000000000000000000000007bffffffffffffffffffffffffffffffffffffffffffffffffffffffff1916827bffffffffffffffffffffffffffffffffffffffffffffffffffffffff1916149050919050565b50505050565b600980549050600a600083815260200190815260200160002081905550600981908060018154018082558091505060019003906000526020600020016000909190919091505550565b6000600161301184610f18565b61301b91906141b9565b9050600060086000848152602001908152602001600020549050818114613100576000600760008673ffffffffffffffffffffffffffffffffffffffff1673ffffffffffffffffffffffffffffffffffffffff168152602001908152602001600020600084815260200190815260200160002054905080600760008773ffffffffffffffffffffffffffffffffffffffff1673ffffffffffffffffffffffffffffffffffffffff168152602001908152602001600020600084815260200190815260200160002081905550816008600083815260200190815260200160002081905550505b6008600084815260200190815260200160002060009055600760008573ffffffffffffffffffffffffffffffffffffffff1673ffffffffffffffffffffffffffffffffffffffff16815260200190815260200160002060008381526020019081526020016000206000905550505050565b6000600160098054905061318591906141b9565b90506000600a60008481526020019081526020016000205490506000600983815481106131b5576131b4614403565b5b9060005260206000200154905080600983815481106131d7576131d6614403565b5b906000526020600020018190555081600a600083815260200190815260200160002081905550600a600085815260200190815260200160002060009055600980548061322657613225615036565b5b6001900381819060005260206000200160009055905550505050565b600061324d83610f18565b905081600760008573ffffffffffffffffffffffffffffffffffffffff1673ffffffffffffffffffffffffffffffffffffffff168152602001908152602001600020600083815260200190815260200160002081905550806008600084815260200190815260200160002081905550505050565b600080600090507a184f03e93ff9f4daa797ed6e38ed64bf6a1f010000000000000000831061331f577a184f03e93ff9f4daa797ed6e38ed64bf6a1f010000000000000000838161331557613314614311565b5b0492506040810190505b6d04ee2d6d415b85acef8100000000831061335c576d04ee2d6d415b85acef8100000000838161335257613351614311565b5b0492506020810190505b662386f26fc10000831061338b57662386f26fc10000838161338157613380614311565b5b0492506010810190505b6305f5e10083106133b4576305f5e10083816133aa576133a9614311565b5b0492506008810190505b61271083106133d95761271083816133cf576133ce614311565b5b0492506004810190505b606483106133fc57606483816133f2576133f1614311565b5b0492506002810190505b600a831061340b576001810190505b80915050919050565b60405180610120016040528060008152602001606081526020016000815260200160008152602001600081526020016000815260200160008152602001600081526020016000151581525090565b6000604051905090565b600080fd5b600080fd5b60007fffffffff0000000000000000000000000000000000000000000000000000000082169050919050565b6134ab81613476565b81146134b657600080fd5b50565b6000813590506134c8816134a2565b92915050565b6000602082840312156134e4576134e361346c565b5b60006134f2848285016134b9565b91505092915050565b60008115159050919050565b613510816134fb565b82525050565b600060208201905061352b6000830184613507565b92915050565b600081519050919050565b600082825260208201905092915050565b60005b8381101561356b578082015181840152602081019050613550565b60008484015250505050565b6000601f19601f8301169050919050565b600061359382613531565b61359d818561353c565b93506135ad81856020860161354d565b6135b681613577565b840191505092915050565b600060208201905081810360008301526135db8184613588565b905092915050565b6000819050919050565b6135f6816135e3565b811461360157600080fd5b50565b600081359050613613816135ed565b92915050565b60006020828403121561362f5761362e61346c565b5b600061363d84828501613604565b91505092915050565b600073ffffffffffffffffffffffffffffffffffffffff82169050919050565b600061367182613646565b9050919050565b61368181613666565b82525050565b600060208201905061369c6000830184613678565b92915050565b6136ab81613666565b81146136b657600080fd5b50565b6000813590506136c8816136a2565b92915050565b600080604083850312156136e5576136e461346c565b5b60006136f3858286016136b9565b925050602061370485828601613604565b9150509250929050565b613717816135e3565b82525050565b6000602082019050613732600083018461370e565b92915050565b6000806040838503121561374f5761374e61346c565b5b600061375d85828601613604565b925050602061376e85828601613604565b9150509250929050565b6000806000606084860312156137915761379061346c565b5b600061379f868287016136b9565b93505060206137b0868287016136b9565b92505060406137c186828701613604565b9150509250925092565b6000819050919050565b60006137f06137eb6137e684613646565b6137cb565b613646565b9050919050565b6000613802826137d5565b9050919050565b6000613814826137f7565b9050919050565b61382481613809565b82525050565b600060208201905061383f600083018461381b565b92915050565b6000806040838503121561385c5761385b61346c565b5b600061386a85828601613604565b925050602061387b858286016136b9565b9150509250929050565b60006020828403121561389b5761389a61346c565b5b60006138a9848285016136b9565b91505092915050565b6138bb816135e3565b82525050565b600082825260208201905092915050565b60006138dd82613531565b6138e781856138c1565b93506138f781856020860161354d565b61390081613577565b840191505092915050565b613914816134fb565b82525050565b60006101208301600083015161393360008601826138b2565b506020830151848203602086015261394b82826138d2565b915050604083015161396060408601826138b2565b50606083015161397360608601826138b2565b50608083015161398660808601826138b2565b5060a083015161399960a08601826138b2565b5060c08301516139ac60c08601826138b2565b5060e08301516139bf60e08601826138b2565b506101008301516139d461010086018261390b565b508091505092915050565b600060208201905081810360008301526139f9818461391a565b905092915050565b613a0a816134fb565b8114613a1557600080fd5b50565b600081359050613a2781613a01565b92915050565b60008060408385031215613a4457613a4361346c565b5b6000613a52858286016136b9565b9250506020613a6385828601613a18565b9150509250929050565b600080fd5b600080fd5b7f4e487b7100000000000000000000000000000000000000000000000000000000600052604160045260246000fd5b613aaf82613577565b810181811067ffffffffffffffff82111715613ace57613acd613a77565b5b80604052505050565b6000613ae1613462565b9050613aed8282613aa6565b919050565b600067ffffffffffffffff821115613b0d57613b0c613a77565b5b613b1682613577565b9050602081019050919050565b82818337600083830152505050565b6000613b45613b4084613af2565b613ad7565b905082815260208101848484011115613b6157613b60613a72565b5b613b6c848285613b23565b509392505050565b600082601f830112613b8957613b88613a6d565b5b8135613b99848260208601613b32565b91505092915050565b60008060008060808587031215613bbc57613bbb61346c565b5b6000613bca878288016136b9565b9450506020613bdb878288016136b9565b9350506040613bec87828801613604565b925050606085013567ffffffffffffffff811115613c0d57613c0c613471565b5b613c1987828801613b74565b91505092959194509250565b600067ffffffffffffffff821115613c4057613c3f613a77565b5b613c4982613577565b9050602081019050919050565b6000613c69613c6484613c25565b613ad7565b905082815260208101848484011115613c8557613c84613a72565b5b613c90848285613b23565b509392505050565b600082601f830112613cad57613cac613a6d565b5b8135613cbd848260208601613c56565b91505092915050565b600080600080600060a08688031215613ce257613ce161346c565b5b600086013567ffffffffffffffff811115613d0057613cff613471565b5b613d0c88828901613c98565b955050602086013567ffffffffffffffff811115613d2d57613d2c613471565b5b613d3988828901613c98565b9450506040613d4a88828901613604565b9350506060613d5b88828901613604565b9250506080613d6c88828901613604565b9150509295509295909350565b60008060408385031215613d9057613d8f61346c565b5b6000613d9e858286016136b9565b9250506020613daf858286016136b9565b9150509250929050565b600061012082019050613dcf600083018c61370e565b8181036020830152613de1818b613588565b9050613df0604083018a61370e565b613dfd606083018961370e565b613e0a608083018861370e565b613e1760a083018761370e565b613e2460c083018661370e565b613e3160e083018561370e565b613e3f610100830184613507565b9a9950505050505050505050565b7f4e487b7100000000000000000000000000000000000000000000000000000000600052602260045260246000fd5b60006002820490506001821680613e9457607f821691505b602082108103613ea757613ea6613e4d565b5b50919050565b7f4552433732313a20617070726f76616c20746f2063757272656e74206f776e6560008201527f7200000000000000000000000000000000000000000000000000000000000000602082015250565b6000613f0960218361353c565b9150613f1482613ead565b604082019050919050565b60006020820190508181036000830152613f3881613efc565b9050919050565b7f4552433732313a20617070726f76652063616c6c6572206973206e6f7420746f60008201527f6b656e206f776e6572206f7220617070726f76656420666f7220616c6c000000602082015250565b6000613f9b603d8361353c565b9150613fa682613f3f565b604082019050919050565b60006020820190508181036000830152613fca81613f8e565b9050919050565b7f4e6f7420656e6f7567682073686172657320746f2073656c6c00000000000000600082015250565b600061400760198361353c565b915061401282613fd1565b602082019050919050565b6000602082019050818103600083015261403681613ffa565b9050919050565b7f4e487b7100000000000000000000000000000000000000000000000000000000600052601160045260246000fd5b6000614077826135e3565b9150614082836135e3565b9250828202614090816135e3565b915082820484148315176140a7576140a661403d565b5b5092915050565b60006040820190506140c36000830185613678565b6140d0602083018461370e565b9392505050565b6000815190506140e681613a01565b92915050565b6000602082840312156141025761410161346c565b5b6000614110848285016140d7565b91505092915050565b7f5061796d656e74206661696c6564000000000000000000000000000000000000600082015250565b600061414f600e8361353c565b915061415a82614119565b602082019050919050565b6000602082019050818103600083015261417e81614142565b9050919050565b6000614190826135e3565b915061419b836135e3565b92508282019050808211156141b3576141b261403d565b5b92915050565b60006141c4826135e3565b91506141cf836135e3565b92508282039050818111156141e7576141e661403d565b5b92915050565b7f4552433732313a2063616c6c6572206973206e6f7420746f6b656e206f776e6560008201527f72206f7220617070726f76656400000000000000000000000000000000000000602082015250565b6000614249602d8361353c565b9150614254826141ed565b604082019050919050565b600060208201905081810360008301526142788161423c565b9050919050565b7f455243373231456e756d657261626c653a206f776e657220696e646578206f7560008201527f74206f6620626f756e6473000000000000000000000000000000000000000000602082015250565b60006142db602b8361353c565b91506142e68261427f565b604082019050919050565b6000602082019050818103600083015261430a816142ce565b9050919050565b7f4e487b7100000000000000000000000000000000000000000000000000000000600052601260045260246000fd5b600061434b826135e3565b9150614356836135e3565b92508261436657614365614311565b5b828204905092915050565b7f455243373231456e756d657261626c653a20676c6f62616c20696e646578206f60008201527f7574206f6620626f756e64730000000000000000000000000000000000000000602082015250565b60006143cd602c8361353c565b91506143d882614371565b604082019050919050565b600060208201905081810360008301526143fc816143c0565b9050919050565b7f4e487b7100000000000000000000000000000000000000000000000000000000600052603260045260246000fd5b7f4552433732313a20696e76616c696420746f6b656e2049440000000000000000600082015250565b600061446860188361353c565b915061447382614432565b602082019050919050565b600060208201905081810360008301526144978161445b565b9050919050565b7f4552433732313a2061646472657373207a65726f206973206e6f74206120766160008201527f6c6964206f776e65720000000000000000000000000000000000000000000000602082015250565b60006144fa60298361353c565b91506145058261449e565b604082019050919050565b60006020820190508181036000830152614529816144ed565b9050919050565b7f50726f7065727479206973206e6f74206c697374656400000000000000000000600082015250565b600061456660168361353c565b915061457182614530565b602082019050919050565b6000602082019050818103600083015261459581614559565b9050919050565b7f4e6f7420656e6f7567682073686172657320617661696c61626c650000000000600082015250565b60006145d2601b8361353c565b91506145dd8261459c565b602082019050919050565b60006020820190508181036000830152614601816145c5565b9050919050565b600060608201905061461d6000830186613678565b61462a6020830185613678565b614637604083018461370e565b949350505050565b60008190508160005260206000209050919050565b60006020601f8301049050919050565b600082821b905092915050565b6000600883026146a17fffffffffffffffffffffffffffffffffffffffffffffffffffffffffffffffff82614664565b6146ab8683614664565b95508019841693508086168417925050509392505050565b60006146de6146d96146d4846135e3565b6137cb565b6135e3565b9050919050565b6000819050919050565b6146f8836146c3565b61470c614704826146e5565b848454614671565b825550505050565b600090565b614721614714565b61472c8184846146ef565b505050565b5b8181101561475057614745600082614719565b600181019050614732565b5050565b601f821115614795576147668161463f565b61476f84614654565b8101602085101561477e578190505b61479261478a85614654565b830182614731565b50505b505050565b600082821c905092915050565b60006147b86000198460080261479a565b1980831691505092915050565b60006147d183836147a7565b9150826002028217905092915050565b6147ea82613531565b67ffffffffffffffff81111561480357614802613a77565b5b61480d8254613e7c565b614818828285614754565b600060209050601f83116001811461484b5760008415614839578287015190505b61484385826147c5565b8655506148ab565b601f1984166148598661463f565b60005b828110156148815784890151825560018201915060208501945060208101905061485c565b8683101561489e578489015161489a601f8916826147a7565b8355505b6001600288020188555050505b505050505050565b600060808201905081810360008301526148cd8187613588565b90506148dc602083018661370e565b6148e9604083018561370e565b6148f6606083018461370e565b95945050505050565b7f4f776e61626c653a206e6577206f776e657220697320746865207a65726f206160008201527f6464726573730000000000000000000000000000000000000000000000000000602082015250565b600061495b60268361353c565b9150614966826148ff565b604082019050919050565b6000602082019050818103600083015261498a8161494e565b9050919050565b7f4e6f20736861726573206f776e65640000000000000000000000000000000000600082015250565b60006149c7600f8361353c565b91506149d282614991565b602082019050919050565b600060208201905081810360008301526149f6816149ba565b9050919050565b7f52656e74616c20696e636f6d65207472616e73666572206661696c6564000000600082015250565b6000614a33601d8361353c565b9150614a3e826149fd565b602082019050919050565b60006020820190508181036000830152614a6281614a26565b9050919050565b7f4552433732313a207472616e736665722066726f6d20696e636f72726563742060008201527f6f776e6572000000000000000000000000000000000000000000000000000000602082015250565b6000614ac560258361353c565b9150614ad082614a69565b604082019050919050565b60006020820190508181036000830152614af481614ab8565b9050919050565b7f4552433732313a207472616e7366657220746f20746865207a65726f2061646460008201527f7265737300000000000000000000000000000000000000000000000000000000602082015250565b6000614b5760248361353c565b9150614b6282614afb565b604082019050919050565b60006020820190508181036000830152614b8681614b4a565b9050919050565b7f4f776e61626c653a2063616c6c6572206973206e6f7420746865206f776e6572600082015250565b6000614bc360208361353c565b9150614bce82614b8d565b602082019050919050565b60006020820190508181036000830152614bf281614bb6565b9050919050565b7f4552433732313a20617070726f766520746f2063616c6c657200000000000000600082015250565b6000614c2f60198361353c565b9150614c3a82614bf9565b602082019050919050565b60006020820190508181036000830152614c5e81614c22565b9050919050565b7f4552433732313a207472616e7366657220746f206e6f6e20455243373231526560008201527f63656976657220696d706c656d656e7465720000000000000000000000000000602082015250565b6000614cc160328361353c565b9150614ccc82614c65565b604082019050919050565b60006020820190508181036000830152614cf081614cb4565b9050919050565b600081905092915050565b6000614d0d82613531565b614d178185614cf7565b9350614d2781856020860161354d565b80840191505092915050565b6000614d3f8285614d02565b9150614d4b8284614d02565b91508190509392505050565b7f45524337323155524953746f726167653a2055524920736574206f66206e6f6e60008201527f6578697374656e7420746f6b656e000000000000000000000000000000000000602082015250565b6000614db3602e8361353c565b9150614dbe82614d57565b604082019050919050565b60006020820190508181036000830152614de281614da6565b9050919050565b600081519050919050565b600082825260208201905092915050565b6000614e1082614de9565b614e1a8185614df4565b9350614e2a81856020860161354d565b614e3381613577565b840191505092915050565b6000608082019050614e536000830187613678565b614e606020830186613678565b614e6d604083018561370e565b8181036060830152614e7f8184614e05565b905095945050505050565b600081519050614e99816134a2565b92915050565b600060208284031215614eb557614eb461346c565b5b6000614ec384828501614e8a565b91505092915050565b7f455243373231456e756d657261626c653a20636f6e736563757469766520747260008201527f616e7366657273206e6f7420737570706f727465640000000000000000000000602082015250565b6000614f2860358361353c565b9150614f3382614ecc565b604082019050919050565b60006020820190508181036000830152614f5781614f1b565b9050919050565b7f4552433732313a206d696e7420746f20746865207a65726f2061646472657373600082015250565b6000614f9460208361353c565b9150614f9f82614f5e565b602082019050919050565b60006020820190508181036000830152614fc381614f87565b9050919050565b7f4552433732313a20746f6b656e20616c7265616479206d696e74656400000000600082015250565b6000615000601c8361353c565b915061500b82614fca565b602082019050919050565b6000602082019050818103600083015261502f81614ff3565b9050919050565b7f4e487b7100000000000000000000000000000000000000000000000000000000600052603160045260246000fdfea26469706673582212201a39cab4d02a690881d7a066c7c7f47094776211b247701b33de106abcc0e8ae64736f6c63430008140033",
  "linkReferences": {},
  "deployedLinkReferences": {}
}